{
  "_format": "hh-sol-artifact-1",
  "contractName": "AutoSwapExecutor",
  "sourceName": "contracts/AutoSwap/AutoSwapExecutor.sol",
  "abi": [
    {
      "inputs": [
        {
          "internalType": "address",
          "name": "smartAccount",
          "type": "address"
        }
      ],
      "name": "AlreadyInitialized",
      "type": "error"
    },
    {
      "inputs": [
        {
          "internalType": "address",
          "name": "smartAccount",
          "type": "address"
        }
      ],
      "name": "NotInitialized",
      "type": "error"
    },
    {
      "inputs": [
        {
          "internalType": "uint256",
          "name": "x",
          "type": "uint256"
        },
        {
          "internalType": "uint256",
          "name": "y",
          "type": "uint256"
        }
      ],
      "name": "PRBMath_MulDiv18_Overflow",
      "type": "error"
    },
    {
      "anonymous": false,
      "inputs": [
        {
          "indexed": true,
          "internalType": "address",
          "name": "smartAccount",
          "type": "address"
        },
        {
          "indexed": true,
          "internalType": "address",
          "name": "token",
          "type": "address"
        },
        {
          "indexed": false,
          "internalType": "uint256",
          "name": "amountIn",
          "type": "uint256"
        }
      ],
      "name": "AutoSaveExecuted",
      "type": "event"
    },
    {
      "anonymous": false,
      "inputs": [
        {
          "indexed": true,
          "internalType": "address",
          "name": "account",
          "type": "address"
        },
        {
          "indexed": true,
          "internalType": "address",
          "name": "token",
          "type": "address"
        }
      ],
      "name": "ConfigSet",
      "type": "event"
    },
    {
      "inputs": [
        {
          "internalType": "address",
          "name": "token",
          "type": "address"
        },
        {
          "internalType": "uint256",
          "name": "amountReceived",
          "type": "uint256"
        }
      ],
      "name": "autoSwap",
      "outputs": [],
      "stateMutability": "nonpayable",
      "type": "function"
    },
    {
      "inputs": [
        {
          "internalType": "uint256",
          "name": "amountReceived",
          "type": "uint256"
        },
        {
          "internalType": "UD2x18",
          "name": "percentage",
          "type": "uint64"
        }
      ],
      "name": "calcDepositAmount",
      "outputs": [
        {
          "internalType": "uint256",
          "name": "",
          "type": "uint256"
        }
      ],
      "stateMutability": "pure",
      "type": "function"
    },
    {
      "inputs": [
        {
          "internalType": "address",
          "name": "",
          "type": "address"
        },
        {
          "internalType": "address",
          "name": "",
          "type": "address"
        }
      ],
      "name": "config",
      "outputs": [
        {
          "internalType": "UD2x18",
          "name": "percentage",
          "type": "uint64"
        },
        {
          "internalType": "address",
          "name": "targetToken",
          "type": "address"
        },
        {
          "internalType": "address",
          "name": "to",
          "type": "address"
        },
        {
          "internalType": "uint256",
          "name": "totalAmount",
          "type": "uint256"
        }
      ],
      "stateMutability": "view",
      "type": "function"
    },
    {
      "inputs": [
        {
          "internalType": "address",
          "name": "token",
          "type": "address"
        },
        {
          "internalType": "address",
          "name": "targetToken",
          "type": "address"
        },
        {
          "internalType": "UD2x18",
          "name": "percentage",
          "type": "uint64"
        },
        {
          "internalType": "address",
          "name": "to",
          "type": "address"
        }
      ],
      "name": "createConfig",
      "outputs": [],
      "stateMutability": "nonpayable",
      "type": "function"
    },
    {
      "inputs": [
        {
          "internalType": "address",
          "name": "smartAccount",
          "type": "address"
        }
      ],
      "name": "isInitialized",
      "outputs": [
        {
          "internalType": "bool",
          "name": "",
          "type": "bool"
        }
      ],
      "stateMutability": "view",
      "type": "function"
    },
    {
      "inputs": [
        {
          "internalType": "uint256",
          "name": "typeID",
          "type": "uint256"
        }
      ],
      "name": "isModuleType",
      "outputs": [
        {
          "internalType": "bool",
          "name": "",
          "type": "bool"
        }
      ],
      "stateMutability": "pure",
      "type": "function"
    },
    {
      "inputs": [],
      "name": "name",
      "outputs": [
        {
          "internalType": "string",
          "name": "",
          "type": "string"
        }
      ],
      "stateMutability": "pure",
      "type": "function"
    },
    {
      "inputs": [
        {
          "internalType": "bytes",
          "name": "data",
          "type": "bytes"
        }
      ],
      "name": "onInstall",
      "outputs": [],
      "stateMutability": "nonpayable",
      "type": "function"
    },
    {
      "inputs": [
        {
          "internalType": "bytes",
          "name": "",
          "type": "bytes"
        }
      ],
      "name": "onUninstall",
      "outputs": [],
      "stateMutability": "nonpayable",
      "type": "function"
    },
    {
      "inputs": [],
      "name": "version",
      "outputs": [
        {
          "internalType": "string",
          "name": "",
          "type": "string"
        }
      ],
      "stateMutability": "pure",
      "type": "function"
    }
  ],
  "bytecode": "0x60808060405234601557610d37908161001b8239f35b600080fdfe608080604052600436101561001357600080fd5b60003560e01c90816306fdde031461096757508063115e44d01461084a57806314034d61146101fa578063541e6833146101be57806354fd4d501461015c5780636d61fe70146101575780638a91b0e314610157578063cbf75c9a146100d7578063d60b347f146100b25763ecd059611461008d57600080fd5b346100ad5760203660031901126100ad5760206040516002600435148152f35b600080fd5b346100ad5760203660031901126100ad576100cb610a0b565b50602060405160008152f35b346100ad5760403660031901126100ad5760806100f2610a0b565b6100fa610a21565b6001600160a01b0380921660005260006020528160406000209116600052602052604060002090815491600282600183015416910154916040519367ffffffffffffffff8116855260401c16602084015260408301526060820152f35b610a37565b346100ad5760003660031901126100ad576101ba60405161017c81610ab7565b600581527f302e302e3100000000000000000000000000000000000000000000000000000060208201526040519182916020835260208301906109e6565b0390f35b346100ad5760403660031901126100ad5760243567ffffffffffffffff81168091036100ad576101f2602091600435610c52565b604051908152f35b346100ad5760403660031901126100ad57610213610a0b565b33600052600060205260406000206001600160a01b0382166000526020526001600160a01b03602060406000206000806040519261025084610a7f565b600281549167ffffffffffffffff83168652878360401c16878701528760018201541660408701520154606085015260405186868201927f2c2ecbc200000000000000000000000000000000000000000000000000000000845260401c166024820152602481526102c081610a9b565b51906a636f6e736f6c652e6c6f675afa506102e867ffffffffffffffff825116602435610c52565b500151166102f546610b26565b6040519161030283610a7f565b6003835260005b6060811061083357506001600160a01b03825116610325610b05565b5061032e610b05565b50604051907f095ea7b30000000000000000000000000000000000000000000000000000000090816020840152806024840152600060448401526044835261037583610a7f565b6040519261038284610a9b565b6001600160a01b038816845260006020850152604084015260405191602083015260248201526024356044820152604481526103bd81610a7f565b604051906103ca82610a9b565b6001600160a01b038716825260006020830152604082015284516001101561081d57604085015283511561081d57602084015262ffffff60206001600160a01b038451169301511661041a610b05565b506040518060e081011067ffffffffffffffff60e08301111761079a576020926001600160a01b039260e08301604052838816835284830191825260408301908152836060840133815262ffffff608086019360243585528360a0880196600088528160c08a019960008b527f04e45aaf000000000000000000000000000000000000000000000000000000006040519d8e0152511660248c0152511660448a015251166064880152511660848601525160a48501525160c4840152511660e482015260e4815261012081019181831067ffffffffffffffff84111761079a578260405261050783610a9b565b8252600061014082015261016081015261052082610af5565b5261052a81610af5565b5060405160208101907f010000000000000000000000000000000000000000000000000000000000000082526000602182015260006022820152600060268201526000602a8201526020815261057f81610ab7565b519051906020811061080b575b5090604051906040820160208084015281518091526060830190602060608260051b8601019301916000905b8282106107bc57878761061e600089808a03936105dd601f1995868101845283610ad3565b60405193849283927fd691c96400000000000000000000000000000000000000000000000000000000845260048401526040602484015260448301906109e6565b038183335af19081156107b05760009161068a575b5061063e9150610af5565b516020818051810103126100ad5760206001600160a01b039101519160405192835216907f08e2ed806097a381d22900fff99d42ccd16283e24fdd2912277d39995588bb2860203392a3005b90503d806000833e61069c8183610ad3565b8101906020818303126100ad5780519067ffffffffffffffff82116100ad5701601f9282601f830112156100ad5781519367ffffffffffffffff851161079a578460051b90604051956106f26020840188610ad3565b8652602080870192850101938585116100ad5760208101925b858410610723575050505050505061063e9083610633565b835167ffffffffffffffff81116100ad5782019087603f830112156100ad5760208201519067ffffffffffffffff821161079a5760405161076b602089888601160182610ad3565b82815289604084860101116100ad5761078f602094938594604086850191016109c3565b81520193019261070b565b634e487b7160e01b600052604160045260246000fd5b6040513d6000823e3d90fd5b909192936020806107fd600193605f198a8203018652606060408a516001600160a01b038151168452858101518685015201519181604082015201906109e6565b9601920192019092916105b8565b6000199060200360031b1b168361058c565b634e487b7160e01b600052603260045260246000fd5b60209061083e610b05565b82828701015201610309565b346100ad5760803660031901126100ad57610863610a0b565b61086b610a21565b6044359167ffffffffffffffff918284168094036100ad57606435906001600160a01b03908183168093036100ad57600294604051966108aa88610a7f565b875282602088019216825260408701938452606087019460008652336000526000602052836040600020911660005260205260406000209651167fffffffff000000000000000000000000000000000000000000000000000000007bffffffffffffffffffffffffffffffffffffffff00000000000000008854935160401b16921617178555600185019151167fffffffffffffffffffffffff000000000000000000000000000000000000000082541617905551910155600080f35b346100ad5760003660031901126100ad57806109856101ba92610ab7565b601081527f4175746f537761704578656375746f720000000000000000000000000000000060208201526040519182916020835260208301906109e6565b60005b8381106109d65750506000910152565b81810151838201526020016109c6565b906020916109ff815180928185528580860191016109c3565b601f01601f1916010190565b600435906001600160a01b03821682036100ad57565b602435906001600160a01b03821682036100ad57565b346100ad5760203660031901126100ad5760043567ffffffffffffffff8082116100ad57366023830112156100ad5781600401359081116100ad57369101602401116100ad57005b6080810190811067ffffffffffffffff82111761079a57604052565b6060810190811067ffffffffffffffff82111761079a57604052565b6040810190811067ffffffffffffffff82111761079a57604052565b90601f8019910116810190811067ffffffffffffffff82111761079a57604052565b80516002101561081d5760600190565b60405190610b1282610a9b565b606060408360008152600060208201520152565b604090815191610b3583610ab7565b600080845260209384015260018203610b7557610bb891505191610b5883610ab7565b73e592427a0aece92de3edee1f18e0157c05861564835282015290565b608982148015610c47575b8015610c3c575b15610bb957610bb891505191610b9c83610ab7565b7368b3465833fb72a70ecdf485e0e4c7bd8665fc45835282015290565b61a4b18203610bd2576101f491505191610b5883610ab7565b81612105610bb89314908115610c2f575b8115610c23575b5015610c18575191610bfb83610ab7565b732626664c2603336e57b271c5c0b26f421741e481835282015290565b5191610b9c83610ab7565b612be591501438610bea565b62014a3281149150610be3565b50612be38214610b87565b5061055a8214610b80565b90919060001983820983820291828083109203918083039214610cf057670de0b6b3a76400009081831015610cb957947faccb18165bd6fe31ae1cf318dc5b51eee0e1ba569b88cd74c1773b91fac1066994950990828211900360ee1b910360121c170290565b60449086604051917f5173648d00000000000000000000000000000000000000000000000000000000835260048301526024820152fd5b5050670de0b6b3a76400009004915056fea264697066735822122037325ee91fe2d9bac34d6eed3dc7959479b8c4e910ac26ea2db87fbcb1e7240864736f6c63430008190033",
  "linkReferences": {},
  "deployedLinkReferences": {}
}