{"abi":[{"type":"function","name":"checkAction","inputs":[{"name":"id","type":"bytes32","internalType":"ConfigId"},{"name":"account","type":"address","internalType":"address"},{"name":"target","type":"address","internalType":"address"},{"name":"value","type":"uint256","internalType":"uint256"},{"name":"callData","type":"bytes","internalType":"bytes"}],"outputs":[{"name":"","type":"uint256","internalType":"uint256"}],"stateMutability":"nonpayable"},{"type":"function","name":"getPolicy","inputs":[{"name":"multiplexer","type":"address","internalType":"address"},{"name":"id","type":"bytes32","internalType":"ConfigId"},{"name":"userOpSender","type":"address","internalType":"address"},{"name":"token","type":"address","internalType":"address"}],"outputs":[{"name":"s","type":"tuple","internalType":"struct SpendingLimitPolicy.TokenPolicyData","components":[{"name":"alreadySpent","type":"uint256","internalType":"uint256"},{"name":"spendingLimit","type":"uint256","internalType":"uint256"}]}],"stateMutability":"view"},{"type":"function","name":"initializeWithMultiplexer","inputs":[{"name":"account","type":"address","internalType":"address"},{"name":"configId","type":"bytes32","internalType":"ConfigId"},{"name":"initData","type":"bytes","internalType":"bytes"}],"outputs":[],"stateMutability":"nonpayable"},{"type":"function","name":"isInitialized","inputs":[{"name":"account","type":"address","internalType":"address"},{"name":"id","type":"bytes32","internalType":"ConfigId"}],"outputs":[{"name":"","type":"bool","internalType":"bool"}],"stateMutability":"view"},{"type":"function","name":"isInitialized","inputs":[{"name":"account","type":"address","internalType":"address"},{"name":"multiplexer","type":"address","internalType":"address"},{"name":"id","type":"bytes32","internalType":"ConfigId"}],"outputs":[{"name":"","type":"bool","internalType":"bool"}],"stateMutability":"view"},{"type":"function","name":"isInitialized","inputs":[{"name":"smartAccount","type":"address","internalType":"address"}],"outputs":[{"name":"","type":"bool","internalType":"bool"}],"stateMutability":"view"},{"type":"function","name":"isModuleType","inputs":[{"name":"id","type":"uint256","internalType":"uint256"}],"outputs":[{"name":"","type":"bool","internalType":"bool"}],"stateMutability":"pure"},{"type":"function","name":"onInstall","inputs":[{"name":"data","type":"bytes","internalType":"bytes"}],"outputs":[],"stateMutability":"nonpayable"},{"type":"function","name":"onUninstall","inputs":[{"name":"data","type":"bytes","internalType":"bytes"}],"outputs":[],"stateMutability":"nonpayable"},{"type":"function","name":"supportsInterface","inputs":[{"name":"interfaceID","type":"bytes4","internalType":"bytes4"}],"outputs":[{"name":"","type":"bool","internalType":"bool"}],"stateMutability":"pure"},{"type":"event","name":"TokenSpent","inputs":[{"name":"id","type":"bytes32","indexed":false,"internalType":"ConfigId"},{"name":"multiplexer","type":"address","indexed":false,"internalType":"address"},{"name":"token","type":"address","indexed":false,"internalType":"address"},{"name":"account","type":"address","indexed":false,"internalType":"address"},{"name":"amount","type":"uint256","indexed":false,"internalType":"uint256"},{"name":"remaining","type":"uint256","indexed":false,"internalType":"uint256"}],"anonymous":false},{"type":"error","name":"AlreadyInitialized","inputs":[{"name":"smartAccount","type":"address","internalType":"address"}]},{"type":"error","name":"InvalidLimit","inputs":[{"name":"limit","type":"uint256","internalType":"uint256"}]},{"type":"error","name":"InvalidTokenAddress","inputs":[{"name":"token","type":"address","internalType":"address"}]},{"type":"error","name":"NotInitialized","inputs":[{"name":"smartAccount","type":"address","internalType":"address"}]}],"bytecode":{"object":"0x6080604052348015600f57600080fd5b50610a8c8061001f6000396000f3fe608060405234801561001057600080fd5b506004361061008e5760003560e01c806301ffc9a71461009357806305c00895146100bb5780634dd4b2e1146100dc57806359c58b491461010a5780635e75117e146101205780636d61fe70146101375780638a91b0e314610137578063989c9e461461014b578063d60b347f1461015e578063ecd0596114610172575b600080fd5b6100a66100a1366004610574565b610186565b60405190151581526020015b60405180910390f35b6100ce6100c9366004610605565b6101cd565b6040519081526020016100b2565b6100ef6100ea366004610680565b6102c4565b604080518251815260209283015192810192909252016100b2565b6100a66101183660046106d3565b600092915050565b6100a661012e3660046106ff565b60009392505050565b610149610145366004610740565b5050565b005b610149610159366004610781565b61035e565b6100a661016c3660046107dc565b50600090565b6100a66101803660046107f9565b60071490565b600063fa3ff76b60e01b6001600160e01b03198316016101a857506001919050565b63fa3ff76b60e01b6001600160e01b03198316016101c857506001919050565b919050565b600083156101dd575060016102ba565b6000806101eb88868661043d565b91509150816101ff576001925050506102ba565b600061020c8a8a8a610510565b600181015481549192509060006102238583610828565b90508281111561023c57600196505050505050506102ba565b8084557f8c8443cbf8877c7ddfe6d58dd9d439df5da8eb966f6aee4edb64cdb36f6b9c658d338d8f8961026f878a610841565b604080519687526001600160a01b0395861660208801529385169386019390935292166060840152608083019190915260a082015260c00160405180910390a1600096505050505050505b9695505050505050565b60408051808201909152600080825260208201526001600160a01b03821661030a5781604051637330680360e01b81526004016103019190610854565b60405180910390fd5b506000928352602083815260408085206001600160a01b0396871686528252808520928616855291815281842092909416835290835290819020815180830190925280548252600101549181019190915290565b60008061036d8385018561093e565b9150915060005b825181101561043457600083828151811061039157610391610a07565b6020026020010151905060008383815181106103af576103af610a07565b6020026020010151905060006001600160a01b0316826001600160a01b0316036103ee5781604051637330680360e01b81526004016103019190610854565b806000036104125760405163337fcce960e21b815260048101829052602401610301565b600061041f898b85610510565b60019081019290925550919091019050610374565b50505050505050565b6000808061044e6004828688610a1d565b61045791610a47565b905063f6a1584d60e01b6001600160e01b03198216016104995761047e8460048188610a1d565b81019061048b91906106d3565b600194509250610508915050565b6356fa634560e01b6001600160e01b03198216016104be5761047e8460048188610a1d565b63dc478d2360e01b6001600160e01b03198216016104ff576104e38460048188610a1d565b8101906104f091906106ff565b60019550935061050892505050565b60008092509250505b935093915050565b60006001600160a01b03821661053b5781604051637330680360e01b81526004016103019190610854565b5060009283526020838152604080852033865282528085206001600160a01b039384168652825280852093909216845291909152902090565b60006020828403121561058657600080fd5b81356001600160e01b03198116811461059e57600080fd5b9392505050565b6001600160a01b03811681146105ba57600080fd5b50565b60008083601f8401126105cf57600080fd5b5081356001600160401b038111156105e657600080fd5b6020830191508360208285010111156105fe57600080fd5b9250929050565b60008060008060008060a0878903121561061e57600080fd5b863595506020870135610630816105a5565b94506040870135610640816105a5565b93506060870135925060808701356001600160401b0381111561066257600080fd5b61066e89828a016105bd565b979a9699509497509295939492505050565b6000806000806080858703121561069657600080fd5b84356106a1816105a5565b93506020850135925060408501356106b8816105a5565b915060608501356106c8816105a5565b939692955090935050565b600080604083850312156106e657600080fd5b82356106f1816105a5565b946020939093013593505050565b60008060006060848603121561071457600080fd5b833561071f816105a5565b9250602084013561072f816105a5565b929592945050506040919091013590565b6000806020838503121561075357600080fd5b82356001600160401b0381111561076957600080fd5b610775858286016105bd565b90969095509350505050565b6000806000806060858703121561079757600080fd5b84356107a2816105a5565b93506020850135925060408501356001600160401b038111156107c457600080fd5b6107d0878288016105bd565b95989497509550505050565b6000602082840312156107ee57600080fd5b813561059e816105a5565b60006020828403121561080b57600080fd5b5035919050565b634e487b7160e01b600052601160045260246000fd5b8082018082111561083b5761083b610812565b92915050565b8181038181111561083b5761083b610812565b6001600160a01b0391909116815260200190565b634e487b7160e01b600052604160045260246000fd5b604051601f8201601f191681016001600160401b03811182821017156108a6576108a6610868565b604052919050565b60006001600160401b038211156108c7576108c7610868565b5060051b60200190565b600082601f8301126108e257600080fd5b81356108f56108f0826108ae565b61087e565b8082825260208201915060208360051b86010192508583111561091757600080fd5b602085015b8381101561093457803583526020928301920161091c565b5095945050505050565b6000806040838503121561095157600080fd5b82356001600160401b0381111561096757600080fd5b8301601f8101851361097857600080fd5b80356109866108f0826108ae565b8082825260208201915060208360051b8501019250878311156109a857600080fd5b6020840193505b828410156109d35783356109c2816105a5565b8252602093840193909101906109af565b945050505060208301356001600160401b038111156109f157600080fd5b6109fd858286016108d1565b9150509250929050565b634e487b7160e01b600052603260045260246000fd5b60008085851115610a2d57600080fd5b83861115610a3a57600080fd5b5050820193919092039150565b80356001600160e01b03198116906004841015610a78576001600160e01b0319600485900360031b81901b82161691505b509291505056fea164736f6c634300081a000a","linkReferences":{}},"methodIdentifiers":{"checkAction(bytes32,address,address,uint256,bytes)":"05c00895","getPolicy(address,bytes32,address,address)":"4dd4b2e1","initializeWithMultiplexer(address,bytes32,bytes)":"989c9e46","isInitialized(address)":"d60b347f","isInitialized(address,address,bytes32)":"5e75117e","isInitialized(address,bytes32)":"59c58b49","isModuleType(uint256)":"ecd05961","onInstall(bytes)":"6d61fe70","onUninstall(bytes)":"8a91b0e3","supportsInterface(bytes4)":"01ffc9a7"},"id":6}